{
  "address": "0x3FCC96F96860ED05433DBA89A41Dc02E93184fcB",
  "abi": [
    {
      "inputs": [
        {
          "internalType": "contract IEntryPoint",
          "name": "_entryPoint",
          "type": "address"
        }
      ],
      "stateMutability": "nonpayable",
      "type": "constructor"
    },
    {
      "inputs": [],
      "name": "InvalidAudience",
      "type": "error"
    },
    {
      "inputs": [],
      "name": "InvalidAuthToken",
      "type": "error"
    },
    {
      "inputs": [],
      "name": "InvalidKey",
      "type": "error"
    },
    {
      "inputs": [],
      "name": "InvalidOperation",
      "type": "error"
    },
    {
      "inputs": [],
      "name": "InvalidToken",
      "type": "error"
    },
    {
      "inputs": [],
      "name": "JsonParseFailed",
      "type": "error"
    },
    {
      "inputs": [
        {
          "internalType": "uint256",
          "name": "name",
          "type": "uint256"
        }
      ],
      "name": "NameExists",
      "type": "error"
    },
    {
      "inputs": [],
      "name": "accountImplementation",
      "outputs": [
        {
          "internalType": "contract SmartAccount",
          "name": "",
          "type": "address"
        }
      ],
      "stateMutability": "view",
      "type": "function"
    },
    {
      "inputs": [
        {
          "internalType": "uint256",
          "name": "_name",
          "type": "uint256"
        },
        {
          "internalType": "bytes",
          "name": "_header",
          "type": "bytes"
        },
        {
          "internalType": "bytes",
          "name": "_payload",
          "type": "bytes"
        },
        {
          "internalType": "bytes",
          "name": "_signature",
          "type": "bytes"
        },
        {
          "internalType": "bytes32",
          "name": "_digest",
          "type": "bytes32"
        }
      ],
      "name": "changeOwner",
      "outputs": [],
      "stateMutability": "nonpayable",
      "type": "function"
    },
    {
      "inputs": [
        {
          "internalType": "uint256",
          "name": "name",
          "type": "uint256"
        },
        {
          "internalType": "bytes",
          "name": "_token",
          "type": "bytes"
        }
      ],
      "name": "changeOwner",
      "outputs": [],
      "stateMutability": "nonpayable",
      "type": "function"
    },
    {
      "inputs": [
        {
          "internalType": "address",
          "name": "owner",
          "type": "address"
        },
        {
          "internalType": "uint256",
          "name": "name",
          "type": "uint256"
        }
      ],
      "name": "createAccount",
      "outputs": [
        {
          "internalType": "contract SmartAccount",
          "name": "ret",
          "type": "address"
        }
      ],
      "stateMutability": "nonpayable",
      "type": "function"
    },
    {
      "inputs": [
        {
          "internalType": "uint256",
          "name": "name",
          "type": "uint256"
        }
      ],
      "name": "getAddress",
      "outputs": [
        {
          "internalType": "address",
          "name": "",
          "type": "address"
        }
      ],
      "stateMutability": "view",
      "type": "function"
    },
    {
      "inputs": [
        {
          "internalType": "uint256",
          "name": "",
          "type": "uint256"
        }
      ],
      "name": "ownerOf",
      "outputs": [
        {
          "internalType": "address",
          "name": "",
          "type": "address"
        }
      ],
      "stateMutability": "view",
      "type": "function"
    }
  ],
  "transactionHash": "0x3ae9a308be95f7862c73b2c554a75b20f294a37dd96d47c9c7dd49abff1ccb4d",
  "args": [
    "0x0000000071727De22E5E9d8BAf0edAc6f37da032"
  ],
  "numDeployments": 1,
  "solcInputHash": "c1a6abe79c1d2f9735cc7d38a1817a8d",
  "bytecode": "0x60a06040523480156200001157600080fd5b506040516200615838038062006158833981016040819052620000349162000092565b80604051620000439062000084565b6001600160a01b039091168152602001604051809103906000f08015801562000070573d6000803e3d6000fd5b506001600160a01b031660805250620000c4565b6123b68062003da283390190565b600060208284031215620000a557600080fd5b81516001600160a01b0381168114620000bd57600080fd5b9392505050565b608051613cb5620000ed60003960008181609e01528181610555015261070a0152613cb56000f3fe60806040523480156200001157600080fd5b50600436106200007a5760003560e01c80636352211e11620000565780636352211e1462000100578063b93f9b0a1462000139578063fe3963fd146200015057600080fd5b80622fd48b146200007f57806311464fbe14620000985780635fbfb9cf14620000e9575b600080fd5b620000966200009036600462002fec565b62000165565b005b620000c07f000000000000000000000000000000000000000000000000000000000000000081565b60405173ffffffffffffffffffffffffffffffffffffffff909116815260200160405180910390f35b620000c0620000fa36600462003090565b620003ff565b620000c062000111366004620030d7565b60006020819052908152604090205473ffffffffffffffffffffffffffffffffffffffff1681565b620000c06200014a366004620030d7565b620006b3565b6200009662000161366004620030f1565b5050565b60006200017286620006b3565b9050620001818584846200074f565b15620003c55760006200019485620007b6565b90506000620001a38262000990565b805180516020909101209091507fa1ac514459b3145d341d39cf16611635a8d5d5fc99c9eaa4f84a08c0d8f49b5a1462000209576040517fb12eb16f00000000000000000000000000000000000000000000000000000000815260040160405180910390fd5b6000816040516024016200021e9190620031ae565b604080517fffffffffffffffffffffffffffffffffffffffffffffffffffffffffffffffe08184030181529181526020820180517bffffffffffffffffffffffffffffffffffffffffffffffffffffffff167f1aa316470000000000000000000000000000000000000000000000000000000017905251909150600090819073ffffffffffffffffffffffffffffffffffffffff871690620002c290859062003252565b6000604051808303816000865af19150503d806000811462000301576040519150601f19603f3d011682016040523d82523d6000602084013e62000306565b606091505b509150915081156200038857601481015173ffffffffffffffffffffffffffffffffffffffff811615620003815760008c815260208190526040902080547fffffffffffffffffffffffff00000000000000000000000000000000000000001673ffffffffffffffffffffffffffffffffffffffff83161790555b50620003ba565b6040517f398d4d3200000000000000000000000000000000000000000000000000000000815260040160405180910390fd5b5050505050620003f7565b6040517fd20c9e6900000000000000000000000000000000000000000000000000000000815260040160405180910390fd5b505050505050565b60008181526020819052604081205473ffffffffffffffffffffffffffffffffffffffff16816200043084620006b3565b905073ffffffffffffffffffffffffffffffffffffffff8216158015906200048357508173ffffffffffffffffffffffffffffffffffffffff168573ffffffffffffffffffffffffffffffffffffffff16145b1562000493579150620006ad9050565b73ffffffffffffffffffffffffffffffffffffffff821615801590620004e557508173ffffffffffffffffffffffffffffffffffffffff168573ffffffffffffffffffffffffffffffffffffffff1614155b1562000525576040517f43403185000000000000000000000000000000000000000000000000000000008152600481018590526024015b60405180910390fd5b73ffffffffffffffffffffffffffffffffffffffff81163b80156200054f57509150620006ad9050565b8460001b7f0000000000000000000000000000000000000000000000000000000000000000604051620005829062002efc565b73ffffffffffffffffffffffffffffffffffffffff90911681526040602082018190526000908201526060018190604051809103906000f5905080158015620005cf573d6000803e3d6000fd5b506040517f485cc95500000000000000000000000000000000000000000000000000000000815273ffffffffffffffffffffffffffffffffffffffff88811660048301523060248301529195509085169063485cc95590604401600060405180830381600087803b1580156200064457600080fd5b505af115801562000659573d6000803e3d6000fd5b505050600086815260208190526040902080547fffffffffffffffffffffffff00000000000000000000000000000000000000001673ffffffffffffffffffffffffffffffffffffffff8916179055505050505b92915050565b6000620006ad8260001b60405180602001620006cf9062002efc565b7fffffffffffffffffffffffffffffffffffffffffffffffffffffffffffffffe082820381018352601f9091011660408190526200073391907f00000000000000000000000000000000000000000000000000000000000000009060200162003270565b6040516020818303038152906040528051906020012062000fa4565b6000806200075d85620007b6565b905060006200076c8262000990565b905060006200077f826060015162000fba565b9050620007ab8587604051806101200160405280610100815260200162003a806101009139846200108e565b979650505050505050565b60608151600003620007d657505060408051600081526020810190915290565b60048251620007e69190620032eb565b156200084f576040517f08c379a000000000000000000000000000000000000000000000000000000000815260206004820152601c60248201527f696e76616c696420626173653634206465636f64657220696e7075740000000060448201526064016200051c565b60006040518060a0016040528060808152602001620039006080913990506000600484516200087f919062003331565b6200088c90600362003348565b905060006200089d82602062003362565b67ffffffffffffffff811115620008b857620008b862002f0a565b6040519080825280601f01601f191660200182016040528015620008e3576020820181803683370190505b5090508451850151603d60ff8216036200091257600183039250613d3d61ffff82160362000912576001830392505b50818152600183018586518101602084015b818310156200098357600483019250825160ff8082168601511660ff808360081c168701511660061b0160ff808360101c1687015116600c1b60ff808460181c168801511660121b010190508060e81b82525060038101905062000924565b5092979650505050505050565b620009bc6040518060800160405280606081526020016060815260200160608152602001606081525090565b606080808060008080620009d289601e620013cb565b9250925092508260001462000a13576040517f056defb600000000000000000000000000000000000000000000000000000000815260040160405180910390fd5b60018260008151811062000a2b5762000a2b620033a7565b602002602001015160000151600481111562000a4b5762000a4b62003378565b1462000a83576040517fc1ab6dc100000000000000000000000000000000000000000000000000000000815260040160405180910390fd5b600160005b8282101562000f3f57600384838151811062000aa85762000aa8620033a7565b602002602001015160000151600481111562000ac85762000ac862003378565b1462000b00576040517fc1ab6dc100000000000000000000000000000000000000000000000000000000815260040160405180910390fd5b600062000b5985848151811062000b1b5762000b1b620033a7565b60200260200101516020015186858151811062000b3c5762000b3c620033a7565b6020026020010151606001518e620021879092919063ffffffff16565b905062000ba56040518060400160405280600381526020017f6175640000000000000000000000000000000000000000000000000000000000815250826200228890919063ffffffff16565b60000362000c885760038562000bbd85600162003362565b8151811062000bd05762000bd0620033a7565b602002602001015160000151600481111562000bf05762000bf062003378565b1462000c28576040517fc1ab6dc100000000000000000000000000000000000000000000000000000000815260040160405180910390fd5b62000c7c8562000c3a85600162003362565b8151811062000c4d5762000c4d620033a7565b6020026020010151602001518685600162000c69919062003362565b8151811062000b3c5762000b3c620033a7565b98506001915062000f29565b60408051808201909152600581527f656d61696c000000000000000000000000000000000000000000000000000000602082015262000cc990829062002288565b60000362000d6a5760038562000ce185600162003362565b8151811062000cf45762000cf4620033a7565b602002602001015160000151600481111562000d145762000d1462003378565b1462000d4c576040517fc1ab6dc100000000000000000000000000000000000000000000000000000000815260040160405180910390fd5b62000d5e8562000c3a85600162003362565b99506001915062000f29565b60408051808201909152600581527f6e6f6e6365000000000000000000000000000000000000000000000000000000602082015262000dab90829062002288565b60000362000e4c5760038562000dc385600162003362565b8151811062000dd65762000dd6620033a7565b602002602001015160000151600481111562000df65762000df662003378565b1462000e2e576040517fc1ab6dc100000000000000000000000000000000000000000000000000000000815260040160405180910390fd5b62000e408562000c3a85600162003362565b97506001915062000f29565b60408051808201909152600381527f6b69640000000000000000000000000000000000000000000000000000000000602082015262000e8d90829062002288565b60000362000f295760038562000ea585600162003362565b8151811062000eb85762000eb8620033a7565b602002602001015160000151600481111562000ed85762000ed862003378565b1462000f10576040517fc1ab6dc100000000000000000000000000000000000000000000000000000000815260040160405180910390fd5b62000f228562000c3a85600162003362565b9650600191505b62000f3660028462003362565b92505062000a88565b801562000f7257505060408051608081018252968752602087019790975250505092820152606081019190915292915050565b6040517fc1ab6dc100000000000000000000000000000000000000000000000000000000815260040160405180910390fd5b600062000fb38383306200244a565b9392505050565b805160208201206060907fb69ec74eb03c91185aa35bc6a881015ab9a5d56d5721b3c98738f751d0165bea8101620010105760405180610120016040528061010081526020016200398061010091399392505050565b7fcaf43c8c3d983b13d7f63046f554b548e25175f7d41cb526ec6fd7caa16adb9381016200105c57604051806101200160405280610100815260200162003b8061010091399392505050565b6040517f76d4e1e800000000000000000000000000000000000000000000000000000000815260040160405180910390fd5b80516000906040811015620010a8576000915050620013c3565b84518114620010bc576000915050620013c3565b8351604051600091620010dd9184919082908a908a908a90602001620033d6565b604080517fffffffffffffffffffffffffffffffffffffffffffffffffffffffffffffffe0818403018152919052805190915060008367ffffffffffffffff8111156200112e576200112e62002f0a565b6040519080825280601f01601f19166020018201604052801562001159576020820181803683370190505b509050836020820183602086016005600019fa6200117b576000805260206000f35b60008060316012878501035160001a036200119557601191505b81620011b257602f6010878501035160001a03620011b257600f91505b81620011c2576000805260206000f35b60258287030390507e010000000000000000000000000000000000000000000000000000000000007fffff000000000000000000000000000000000000000000000000000000000000602085015116031562001222576000805260206000f35b806022840101602284015b81811015620012575760ff815160001a10156200124e576000805260206000f35b6001016200122d565b50805160001a156200126d576000805260206000f35b5060118203620012dc57602381840101517fffffffffffffffffffffffffffffffffff000000000000000000000000000000167f3031300d060960864801650304020105000000000000000000000000000000008181189114620012d5576000805260206000f35b506200133c565b602381840101517fffffffffffffffffffffffffffffff0000000000000000000000000000000000167f302f300b0609608648016503040201000000000000000000000000000000000081811891146200133a576000805260206000f35b505b7f04200000000000000000000000000000000000000000000000000000000000007fffff00000000000000000000000000000000000000000000000000000000000083836023870101015116031562001399576000805260206000f35b8281018201602501518b8118908c14620013b7576000805260206000f35b50600196505050505050505b949350505050565b60006060600080620013f760405180606001604052806000815260200160008152602001600081525090565b620014028662002474565b6020820151909550909150600090816200144c6040805160c08101909152806000815260006020820181905260408201819052606082018190526080820181905260a09091015290565b8a5185511015620021705760008b866000015181518110620014725762001472620033a7565b01602001517fff000000000000000000000000000000000000000000000000000000000000001690507f7b000000000000000000000000000000000000000000000000000000000000008114806200150b57507f5b000000000000000000000000000000000000000000000000000000000000007fff000000000000000000000000000000000000000000000000000000000000008216145b156200166857836200151d816200343d565b9450506200152c868a62002587565b9097509150866200154d575060039850600096506200218095505050505050565b85604001517fffffffffffffffffffffffffffffffffffffffffffffffffffffffffffffffff14620015b45788866040015181518110620015925762001592620033a7565b602002602001015160a0018051809190620015ad9062003478565b60ff169052505b7f7b000000000000000000000000000000000000000000000000000000000000007fff000000000000000000000000000000000000000000000000000000000000008216146200160657600262001609565b60015b829060048111156200161f576200161f62003378565b9081600481111562001635576200163562003378565b9052508551602080840191909152600160408401819052908701516200165c91906200349a565b60408701525062002159565b7f7d000000000000000000000000000000000000000000000000000000000000007fff0000000000000000000000000000000000000000000000000000000000000082161480620016fa57507f5d000000000000000000000000000000000000000000000000000000000000007fff000000000000000000000000000000000000000000000000000000000000008216145b156200196c5760007f7d000000000000000000000000000000000000000000000000000000000000007fff000000000000000000000000000000000000000000000000000000000000008316146200175457600262001757565b60015b90506000600188602001516200176e91906200349a565b94505b8a8581518110620017865762001786620033a7565b6020026020010151935083604001518015620017a457508360800151155b156200188157816004811115620017bf57620017bf62003378565b84516004811115620017d557620017d562003378565b14620017f3575060019a506000985062002180975050505050505050565b7fffffffffffffffffffffffffffffffffffffffffffffffffffffffffffffffff604089015287516200182890600162003362565b8b86815181106200183d576200183d620033a7565b6020026020010151606001818152505060018b8681518110620018645762001864620033a7565b602090810291909101015190151560809091015250600162001896565b846200188d81620034b0565b95505062001771565b80620018b4575060019a506000985062002180975050505050505050565b841562001916578a8581518110620018d057620018d0620033a7565b6020026020010151935083604001518015620018ee57508360800151155b1562001901576040880185905262001916565b846200190d81620034b0565b955050620018b4565b8460000362001963578a8581518110620019345762001934620033a7565b60200260200101519350836040015180156200195257508360800151155b156200196357600f85900b60408901525b50505062002159565b7fff0000000000000000000000000000000000000000000000000000000000000081167f22000000000000000000000000000000000000000000000000000000000000000362001a5d57620019c3868a8e62002678565b94508415620019e057509297506000955062002180945050505050565b83620019ec816200343d565b94505085604001517fffffffffffffffffffffffffffffffffffffffffffffffffffffffffffffffff1462001a56578886604001518151811062001a345762001a34620033a7565b602002602001015160a001805180919062001a4f9062003478565b60ff169052505b5062002159565b7f20000000000000000000000000000000000000000000000000000000000000007fff000000000000000000000000000000000000000000000000000000000000008216148062001aef57507f11000000000000000000000000000000000000000000000000000000000000007fff000000000000000000000000000000000000000000000000000000000000008216145b8062001b3c57507f12000000000000000000000000000000000000000000000000000000000000007fff000000000000000000000000000000000000000000000000000000000000008216145b8062001b8957507f14000000000000000000000000000000000000000000000000000000000000007fff000000000000000000000000000000000000000000000000000000000000008216145b1562001b96575062002159565b7fff0000000000000000000000000000000000000000000000000000000000000081167f3a000000000000000000000000000000000000000000000000000000000000000362001bf357600186602001516200165c91906200349a565b7fff0000000000000000000000000000000000000000000000000000000000000081167f2c000000000000000000000000000000000000000000000000000000000000000362001dff5785604001517fffffffffffffffffffffffffffffffffffffffffffffffffffffffffffffffff1415801562001cab575060028987604001518151811062001c885762001c88620033a7565b602002602001015160000151600481111562001ca85762001ca862003378565b14155b801562001cf1575060018987604001518151811062001cce5762001cce620033a7565b602002602001015160000151600481111562001cee5762001cee62003378565b14155b1562001a56576001866020015162001d0a91906200349a565b92505b600289848151811062001d245762001d24620033a7565b602002602001015160000151600481111562001d445762001d4462003378565b148062001d855750600189848151811062001d635762001d63620033a7565b602002602001015160000151600481111562001d835762001d8362003378565b145b1562001dea5788838151811062001da05762001da0620033a7565b602002602001015160400151801562001dd7575088838151811062001dc95762001dc9620033a7565b602002602001015160800151155b1562001dea576040860183905262001a56565b8262001df681620034b0565b93505062001d0d565b7f30000000000000000000000000000000000000000000000000000000000000007fff0000000000000000000000000000000000000000000000000000000000000082161080159062001e9457507f39000000000000000000000000000000000000000000000000000000000000007fff00000000000000000000000000000000000000000000000000000000000000821611155b8062001ee157507f2d000000000000000000000000000000000000000000000000000000000000007fff000000000000000000000000000000000000000000000000000000000000008216145b8062001f2e57507f66000000000000000000000000000000000000000000000000000000000000007fff000000000000000000000000000000000000000000000000000000000000008216145b8062001f7b57507f74000000000000000000000000000000000000000000000000000000000000007fff000000000000000000000000000000000000000000000000000000000000008216145b8062001fc857507f6e000000000000000000000000000000000000000000000000000000000000007fff000000000000000000000000000000000000000000000000000000000000008216145b15620020a65785604001517fffffffffffffffffffffffffffffffffffffffffffffffffffffffffffffffff14620020995788866040015181518110620020135762002013620033a7565b602002602001015191506001600481111562002033576200203362003378565b8251600481111562002049576200204962003378565b14806200207d575060038251600481111562002069576200206962003378565b1480156200207d575060a082015160ff1615155b1562002099575060019850600096506200218095505050505050565b620019c3868a8e62002b5d565b7f20000000000000000000000000000000000000000000000000000000000000007fff000000000000000000000000000000000000000000000000000000000000008216108015906200213b57507f7e000000000000000000000000000000000000000000000000000000000000007fff00000000000000000000000000000000000000000000000000000000000000821611155b1562002157575060019850600096506200218095505050505050565b505b84518562002167826200343d565b9052506200144c565b5050505060200151600094509150505b9250925092565b606060006200219784846200349a565b67ffffffffffffffff811115620021b257620021b262002f0a565b6040519080825280601f01601f191660200182016040528015620021dd576020820181803683370190505b509050835b838110156200227f57858181518110620022005762002200620033a7565b01602001517fff0000000000000000000000000000000000000000000000000000000000000016826200223487846200349a565b81518110620022475762002247620033a7565b60200101907effffffffffffffffffffffffffffffffffffffffffffffffffffffffffffff1916908160001a905350600101620021e2565b50949350505050565b6000808351905080835110156200229d575081515b60005b81811015620023f357838181518110620022be57620022be620033a7565b602001015160f81c60f81b7effffffffffffffffffffffffffffffffffffffffffffffffffffffffffffff1916858281518110620023005762002300620033a7565b01602001517fff0000000000000000000000000000000000000000000000000000000000000016101562002359577fffffffffffffffffffffffffffffffffffffffffffffffffffffffffffffffff92505050620006ad565b8381815181106200236e576200236e620033a7565b602001015160f81c60f81b7effffffffffffffffffffffffffffffffffffffffffffffffffffffffffffff1916858281518110620023b057620023b0620033a7565b01602001517fff00000000000000000000000000000000000000000000000000000000000000161115620023ea57600192505050620006ad565b600101620022a0565b5082518451101562002429577fffffffffffffffffffffffffffffffffffffffffffffffffffffffffffffffff915050620006ad565b8251845111156200243f576001915050620006ad565b6000915050620006ad565b6000604051836040820152846020820152828152600b8101905060ff815360559020949350505050565b6200249960405180606001604052806000815260200160008152602001600081525090565b60606000604051806060016040528060008152602001600081526020017fffffffffffffffffffffffffffffffffffffffffffffffffffffffffffffffff815250905060008467ffffffffffffffff811115620024fa57620024fa62002f0a565b6040519080825280602002602001820160405280156200257a57816020015b6040805160c08101825260008082526020808301829052928201819052606082018190526080820181905260a082015282527fffffffffffffffffffffffffffffffffffffffffffffffffffffffffffffffff909201910181620025195790505b5091959194509092505050565b6040805160c081018252600080825260208201819052918101829052606081018290526080810182905260a081018290528251846020015110620025fd5760008360018551620025d891906200349a565b81518110620025eb57620025eb620033a7565b60200260200101519150915062002671565b6040805160c08101825260008082526020808301829052928201819052606082018190526080820181905260a0820152908501518451829186918110620026485762002648620033a7565b602002602001018190525084602001805180919062002667906200343d565b9052506001925090505b9250929050565b825160009081620026b96040805160c08101909152806000815260006020820181905260408201819052606082018190526080820181905260a09091015290565b865187620026c7826200343d565b9052505b84518751101562002b4f57600085886000015181518110620026f157620026f1620033a7565b01602001517fff000000000000000000000000000000000000000000000000000000000000001690507f220000000000000000000000000000000000000000000000000000000000000081900362002792576200274f888862002587565b9093509150826200276857505050845250600362000fb3565b620027848260036200277c87600162003362565b8b5162002ea4565b600094505050505062000fb3565b605c60f882901c148015620027b5575085518851620027b390600162003362565b105b1562002b3657875188620027c9826200343d565b905250875186518791908110620027e457620027e4620033a7565b6020910101517fff00000000000000000000000000000000000000000000000000000000000000167f22000000000000000000000000000000000000000000000000000000000000001480620028995750858860000151815181106200284e576200284e620033a7565b6020910101517fff00000000000000000000000000000000000000000000000000000000000000167f2f00000000000000000000000000000000000000000000000000000000000000145b8062002904575085886000015181518110620028b957620028b9620033a7565b6020910101517fff00000000000000000000000000000000000000000000000000000000000000167f5c00000000000000000000000000000000000000000000000000000000000000145b806200296f575085886000015181518110620029245762002924620033a7565b6020910101517fff00000000000000000000000000000000000000000000000000000000000000167f6600000000000000000000000000000000000000000000000000000000000000145b80620029da5750858860000151815181106200298f576200298f620033a7565b6020910101517fff00000000000000000000000000000000000000000000000000000000000000167f7200000000000000000000000000000000000000000000000000000000000000145b8062002a45575085886000015181518110620029fa57620029fa620033a7565b6020910101517fff00000000000000000000000000000000000000000000000000000000000000167f6e00000000000000000000000000000000000000000000000000000000000000145b8062002ab057508588600001518151811062002a655762002a65620033a7565b6020910101517fff00000000000000000000000000000000000000000000000000000000000000167f6200000000000000000000000000000000000000000000000000000000000000145b8062002b1b57508588600001518151811062002ad05762002ad0620033a7565b6020910101517fff00000000000000000000000000000000000000000000000000000000000000167f7400000000000000000000000000000000000000000000000000000000000000145b1562002b28575062002b38565b505050845250600162000fb3565b505b86518762002b46826200343d565b905250620026cb565b505084525060029392505050565b82516000908190818062002ba16040805160c08101909152806000815260006020820181905260408201819052606082018190526080820181905260a09091015290565b86518951101562002e34578689600001518151811062002bc55762002bc5620033a7565b01602001517fff000000000000000000000000000000000000000000000000000000000000001692507f200000000000000000000000000000000000000000000000000000000000000083148062002c5e57507f09000000000000000000000000000000000000000000000000000000000000007fff000000000000000000000000000000000000000000000000000000000000008416145b8062002cab57507f0a000000000000000000000000000000000000000000000000000000000000007fff000000000000000000000000000000000000000000000000000000000000008416145b8062002cf857507f0d000000000000000000000000000000000000000000000000000000000000007fff000000000000000000000000000000000000000000000000000000000000008416145b8062002d4557507f2c000000000000000000000000000000000000000000000000000000000000007fff000000000000000000000000000000000000000000000000000000000000008416145b8062002d9257507f7d000000000000000000000000000000000000000000000000000000000000007fff000000000000000000000000000000000000000000000000000000000000008416145b8062002ddf57507f5d000000000000000000000000000000000000000000000000000000000000007fff000000000000000000000000000000000000000000000000000000000000008416145b1562002def576001945062002e34565b602060f884901c108062002e075750607f60f884901c115b1562002e1d575050508552506001905062000fb3565b88518962002e2b826200343d565b90525062002ba1565b8462002e4a575050508552506002905062000fb3565b62002e56898962002587565b90925090508162002e71575050508552506003905062000fb3565b62002e84816004868c6000015162002ea4565b88518962002e9282620034b0565b90525060009998505050505050505050565b8383600481111562002eba5762002eba62003378565b9081600481111562002ed05762002ed062003378565b90525060208401919091526001604084018190526060840191909152608083015250600060a090910152565b61041780620034e983390190565b7f4e487b7100000000000000000000000000000000000000000000000000000000600052604160045260246000fd5b600082601f83011262002f4b57600080fd5b813567ffffffffffffffff8082111562002f695762002f6962002f0a565b604051601f83017fffffffffffffffffffffffffffffffffffffffffffffffffffffffffffffffe0908116603f0116810190828211818310171562002fb25762002fb262002f0a565b8160405283815286602085880101111562002fcc57600080fd5b836020870160208301376000602085830101528094505050505092915050565b600080600080600060a086880312156200300557600080fd5b85359450602086013567ffffffffffffffff808211156200302557600080fd5b6200303389838a0162002f39565b955060408801359150808211156200304a57600080fd5b6200305889838a0162002f39565b945060608801359150808211156200306f57600080fd5b506200307e8882890162002f39565b95989497509295608001359392505050565b60008060408385031215620030a457600080fd5b823573ffffffffffffffffffffffffffffffffffffffff81168114620030c957600080fd5b946020939093013593505050565b600060208284031215620030ea57600080fd5b5035919050565b600080604083850312156200310557600080fd5b82359150602083013567ffffffffffffffff8111156200312457600080fd5b620031328582860162002f39565b9150509250929050565b60005b83811015620031595781810151838201526020016200313f565b50506000910152565b600081518084526200317c8160208601602086016200313c565b601f017fffffffffffffffffffffffffffffffffffffffffffffffffffffffffffffffe0169290920160200192915050565b602081526000825160806020840152620031cc60a084018262003162565b905060208401517fffffffffffffffffffffffffffffffffffffffffffffffffffffffffffffffe0808584030160408601526200320a838362003162565b9250604086015191508085840301606086015262003229838362003162565b925060608601519150808584030160808601525062003249828262003162565b95945050505050565b60008251620032668184602087016200313c565b9190910192915050565b60008351620032848184602088016200313c565b60609390931b7fffffffffffffffffffffffffffffffffffffffff000000000000000000000000169190920190815260140192915050565b7f4e487b7100000000000000000000000000000000000000000000000000000000600052601260045260246000fd5b600082620032fd57620032fd620032bc565b500690565b7f4e487b7100000000000000000000000000000000000000000000000000000000600052601160045260246000fd5b600082620033435762003343620032bc565b500490565b8082028115828204841417620006ad57620006ad62003302565b80820180821115620006ad57620006ad62003302565b7f4e487b7100000000000000000000000000000000000000000000000000000000600052602160045260246000fd5b7f4e487b7100000000000000000000000000000000000000000000000000000000600052603260045260246000fd5b86815285602082015284604082015260008451620033fc8160608501602089016200313c565b845190830190620034158160608401602089016200313c565b84519101906200342d8160608401602088016200313c565b0160600198975050505050505050565b60007fffffffffffffffffffffffffffffffffffffffffffffffffffffffffffffffff820362003471576200347162003302565b5060010190565b600060ff821660ff810362003491576200349162003302565b60010192915050565b81810381811115620006ad57620006ad62003302565b600081620034c257620034c262003302565b507fffffffffffffffffffffffffffffffffffffffffffffffffffffffffffffffff019056fe608060405260405161041738038061041783398101604081905261002291610268565b61002c8282610033565b5050610352565b61003c82610092565b6040516001600160a01b038316907fbc7cd75a20ee27fd9adebab32041f755214dbc6bffa90cc0225b39da2e5c2d3b90600090a280511561008657610081828261010e565b505050565b61008e610185565b5050565b806001600160a01b03163b6000036100cd57604051634c9c8ce360e01b81526001600160a01b03821660048201526024015b60405180910390fd5b7f360894a13ba1a3210667c828492db98dca3e2076cc3735a920a3ca505d382bbc80546001600160a01b0319166001600160a01b0392909216919091179055565b6060600080846001600160a01b03168460405161012b9190610336565b600060405180830381855af49150503d8060008114610166576040519150601f19603f3d011682016040523d82523d6000602084013e61016b565b606091505b50909250905061017c8583836101a6565b95945050505050565b34156101a45760405163b398979f60e01b815260040160405180910390fd5b565b6060826101bb576101b682610205565b6101fe565b81511580156101d257506001600160a01b0384163b155b156101fb57604051639996b31560e01b81526001600160a01b03851660048201526024016100c4565b50805b9392505050565b8051156102155780518082602001fd5b604051630a12f52160e11b815260040160405180910390fd5b634e487b7160e01b600052604160045260246000fd5b60005b8381101561025f578181015183820152602001610247565b50506000910152565b6000806040838503121561027b57600080fd5b82516001600160a01b038116811461029257600080fd5b60208401519092506001600160401b03808211156102af57600080fd5b818501915085601f8301126102c357600080fd5b8151818111156102d5576102d561022e565b604051601f8201601f19908116603f011681019083821181831017156102fd576102fd61022e565b8160405282815288602084870101111561031657600080fd5b610327836020830160208801610244565b80955050505050509250929050565b60008251610348818460208701610244565b9190910192915050565b60b7806103606000396000f3fe6080604052600a600c565b005b60186014601a565b605e565b565b600060597f360894a13ba1a3210667c828492db98dca3e2076cc3735a920a3ca505d382bbc5473ffffffffffffffffffffffffffffffffffffffff1690565b905090565b3660008037600080366000845af43d6000803e808015607c573d6000f35b3d6000fdfea2646970667358221220d7f23a80daebb5531c9e4a18d87e812fca112e5df7e56433218edcc12bbe415d64736f6c63430008170033000000000000000000000000000000000000000000000000000000000000000000000000000000000000003e0000003f3435363738393a3b3c3d00000000000000000102030405060708090a0b0c0d0e0f101112131415161718190000000000001a1b1c1d1e1f202122232425262728292a2b2c2d2e2f303132330000000000bddb59ddc7ee878e0995690946efb7c9d755a79f33c521f0b16896fe3a5a5e0a5e6e8d1a9fba98d8812cdc3ee40b5f3a0708b44fb2a6f6651c0dbc6877cf486ed66e410ba1c6581a5c1faa5fd1a890d2ddaa0ebdad469e6a55c6ac274a390fab38194d3469f73382b2c040bdf0ac9000a5deee9aecef21aa23fe37e2bad42da13b64598b033b1836867ff25e774860e245a52b6648715ce12196fd67a258181881f6964844679065539dc17f3c233be6cb78cc312486714883b2f0404830b3fb795bba008900afd31a0cf26a785ee7ec29fccaffea9b2e756d5f883514be1ca455ae24a85318504136ef0d862f2731c662efdc889e284582a40c4c315f3b547b00000000000000000000000000000000000000000000000000000000000000000000000000000000000000000000000000000000000000000000000000000000000000000000000000000000000000000000000000000000000000000000000000000000000000000000000000000000000000000000000000000000000000000000000000000000000000000000000000000000000000000000000000000000000000000000000000000000000000000000000000000000000000000000000000000000000000000000000000000000000000000000000000000000000000000000000000000000000000000000000000000000000000000000000000010001cb8f0de8907e00aab5f91bf84a4c0100353e869e335c753e35c094c310fe692f6faf81284fdaab8e827e62691a129abd066bb5c976592bf87ff504b7c44b0ef1173f592bc840226d21a0d0cfc8719389548d4423301e197fdbdd4e67fc29d92d23db426026ee49b2c2e937a08c333d91b97d08db379bdc1255e3bfe495c9402d09afe3a3ec6cfdb2d5e6d02a377fb442c6b0f4f242de957680825adde537868d93325620b8730d603da8f40a3ea49c39fc525cd1fd6b81a73b3f89eb3906b6f35feca1b7459f9e15e976988634c6e92900f4e0c98f74c098abc10d17bab9fce93b74fb158f5bc703abc51a77fba84dec983d79eeccec9f39f435e5c86d1327b9a2646970667358221220f5466fd0a37f3700b93db87004ad653558f5fcb7a24a4e78287d26c9849a0c8a64736f6c6343000817003360c0604052306080523480156200001557600080fd5b50604051620023b6380380620023b683398101604081905262000038916200010a565b6001600160a01b03811660a0526200004f62000056565b506200013c565b7ff0c57e16840df040f15088dc2f81fe391c3923bec73e23a9662efc9c229c6a00805468010000000000000000900460ff1615620000a75760405163f92ee8a960e01b815260040160405180910390fd5b80546001600160401b0390811614620001075780546001600160401b0319166001600160401b0390811782556040519081527fc7f505b2f371ae2175ee4913f4499e1f2633a7b5936321eed1cdaeb6115181d29060200160405180910390a15b50565b6000602082840312156200011d57600080fd5b81516001600160a01b03811681146200013557600080fd5b9392505050565b60805160a051612215620001a1600039600081816103c701528181610aaf01528181610b5d01528181610ce501528181610da301528181610dea01528181610faa015261112a01526000818161121801528181611241015261146201526122156000f3fe6080604052600436106101635760003560e01c8063820e93f5116100c0578063bc197c8111610074578063c45a015511610059578063c45a015514610468578063d087d28814610495578063f23a6e61146104aa57600080fd5b8063bc197c811461040b578063c399ec881461045357600080fd5b8063ad3cb1cc116100a5578063ad3cb1cc14610362578063b0d691fe146103b8578063b61d27f6146103eb57600080fd5b8063820e93f51461031f5780638da5cb5b1461033557600080fd5b8063485cc955116101175780634d44560d116100fc5780634d44560d146102d75780634f1ef286146102f757806352d1902d1461030a57600080fd5b8063485cc955146102af5780634a58db19146102cf57600080fd5b806319822f7c1161014857806319822f7c1461021a5780631aa316471461024857806347e1da2a1461028d57600080fd5b806301ffc9a71461016f578063150b7a02146101a457600080fd5b3661016a57005b600080fd5b34801561017b57600080fd5b5061018f61018a3660046119ec565b6104f0565b60405190151581526020015b60405180910390f35b3480156101b057600080fd5b506101e96101bf366004611a99565b7f150b7a020000000000000000000000000000000000000000000000000000000095945050505050565b6040517fffffffff00000000000000000000000000000000000000000000000000000000909116815260200161019b565b34801561022657600080fd5b5061023a610235366004611b0c565b6105d5565b60405190815260200161019b565b34801561025457600080fd5b50610268610263366004611c63565b6105fb565b60405173ffffffffffffffffffffffffffffffffffffffff909116815260200161019b565b34801561029957600080fd5b506102ad6102a8366004611d81565b610785565b005b3480156102bb57600080fd5b506102ad6102ca366004611e1b565b61092c565b6102ad610aad565b3480156102e357600080fd5b506102ad6102f2366004611e54565b610b53565b6102ad610305366004611e80565b610c02565b34801561031657600080fd5b5061023a610c21565b34801561032b57600080fd5b5061023a60015481565b34801561034157600080fd5b506000546102689073ffffffffffffffffffffffffffffffffffffffff1681565b34801561036e57600080fd5b506103ab6040518060400160405280600581526020017f352e302e3000000000000000000000000000000000000000000000000000000081525081565b60405161019b9190611ef4565b3480156103c457600080fd5b507f0000000000000000000000000000000000000000000000000000000000000000610268565b3480156103f757600080fd5b506102ad610406366004611f45565b610c50565b34801561041757600080fd5b506101e9610426366004611fa1565b7fbc197c810000000000000000000000000000000000000000000000000000000098975050505050505050565b34801561045f57600080fd5b5061023a610c9f565b34801561047457600080fd5b506002546102689073ffffffffffffffffffffffffffffffffffffffff1681565b3480156104a157600080fd5b5061023a610d56565b3480156104b657600080fd5b506101e96104c5366004612060565b7ff23a6e61000000000000000000000000000000000000000000000000000000009695505050505050565b60007fffffffff0000000000000000000000000000000000000000000000000000000082167f150b7a0200000000000000000000000000000000000000000000000000000000148061058357507fffffffff0000000000000000000000000000000000000000000000000000000082167f4e2312e000000000000000000000000000000000000000000000000000000000145b806105cf57507fffffffff0000000000000000000000000000000000000000000000000000000082167f01ffc9a700000000000000000000000000000000000000000000000000000000145b92915050565b60006105df610dd2565b6105e98484610e73565b90506105f482610f27565b9392505050565b60025460009073ffffffffffffffffffffffffffffffffffffffff16331461064f576040517fdd8dcf5800000000000000000000000000000000000000000000000000000000815260040160405180910390fd5b6040820151600154601482015160005473ffffffffffffffffffffffffffffffffffffffff8083169116036106dc57602080860151805191012060018190556000805460405173ffffffffffffffffffffffffffffffffffffffff909116917f0f9ed33d6b47b06ac77ffbd124ae4820d7d2a0e285ac5666a181f5aca6a5751591a3506000949350505050565b846020015180519060200120820361077d57600080547fffffffffffffffffffffffff00000000000000000000000000000000000000001673ffffffffffffffffffffffffffffffffffffffff8316908117825560015460405190927f0aa5c4053b511b550665f3b190a5584fdea2285bfd74b5d03deff5e5d7e70c6c91a3505060005473ffffffffffffffffffffffffffffffffffffffff169392505050565b505050919050565b61078d610f92565b84811480156107a357508215806107a357508281145b61080e576040517f08c379a000000000000000000000000000000000000000000000000000000000815260206004820152601360248201527f77726f6e67206172726179206c656e677468730000000000000000000000000060448201526064015b60405180910390fd5b60008390036108ba5760005b858110156108b4576108ac878783818110610837576108376120ca565b905060200201602081019061084c91906120f9565b6000858585818110610860576108606120ca565b90506020028101906108729190612116565b8080601f01602080910402602001604051908101604052809392919081815260200183838082843760009201919091525061105392505050565b60010161081a565b50610924565b60005b858110156109225761091a8787838181106108da576108da6120ca565b90506020020160208101906108ef91906120f9565b868684818110610901576109016120ca565b90506020020135858585818110610860576108606120ca565b6001016108bd565b505b505050505050565b7ff0c57e16840df040f15088dc2f81fe391c3923bec73e23a9662efc9c229c6a00805468010000000000000000810460ff16159067ffffffffffffffff166000811580156109775750825b905060008267ffffffffffffffff1660011480156109945750303b155b9050811580156109a2575080155b156109d9576040517ff92ee8a900000000000000000000000000000000000000000000000000000000815260040160405180910390fd5b84547fffffffffffffffffffffffffffffffffffffffffffffffff00000000000000001660011785558315610a3a5784547fffffffffffffffffffffffffffffffffffffffffffffff00ffffffffffffffff16680100000000000000001785555b610a4487876110d0565b83156109225784547fffffffffffffffffffffffffffffffffffffffffffffff00ffffffffffffffff168555604051600181527fc7f505b2f371ae2175ee4913f4499e1f2633a7b5936321eed1cdaeb6115181d29060200160405180910390a150505050505050565b7f00000000000000000000000000000000000000000000000000000000000000006040517fb760faf900000000000000000000000000000000000000000000000000000000815230600482015273ffffffffffffffffffffffffffffffffffffffff919091169063b760faf99034906024016000604051808303818588803b158015610b3857600080fd5b505af1158015610b4c573d6000803e3d6000fd5b5050505050565b610b5b611175565b7f00000000000000000000000000000000000000000000000000000000000000006040517f205c287800000000000000000000000000000000000000000000000000000000815273ffffffffffffffffffffffffffffffffffffffff848116600483015260248201849052919091169063205c287890604401600060405180830381600087803b158015610bee57600080fd5b505af1158015610924573d6000803e3d6000fd5b610c0a611200565b610c1382611304565b610c1d828261130c565b5050565b6000610c2b61144a565b507f360894a13ba1a3210667c828492db98dca3e2076cc3735a920a3ca505d382bbc90565b610c58610f92565b610c99848484848080601f01602080910402602001604051908101604052809392919081815260200183838082843760009201919091525061105392505050565b50505050565b6040517f70a0823100000000000000000000000000000000000000000000000000000000815230600482015260009073ffffffffffffffffffffffffffffffffffffffff7f000000000000000000000000000000000000000000000000000000000000000016906370a08231906024015b602060405180830381865afa158015610d2d573d6000803e3d6000fd5b505050506040513d601f19601f82011682018060405250810190610d51919061217b565b905090565b6040517f35567e1a0000000000000000000000000000000000000000000000000000000081523060048201526000602482018190529073ffffffffffffffffffffffffffffffffffffffff7f000000000000000000000000000000000000000000000000000000000000000016906335567e1a90604401610d10565b3373ffffffffffffffffffffffffffffffffffffffff7f00000000000000000000000000000000000000000000000000000000000000001614610e71576040517f08c379a000000000000000000000000000000000000000000000000000000000815260206004820152601c60248201527f6163636f756e743a206e6f742066726f6d20456e747279506f696e74000000006044820152606401610805565b565b7f19457468657265756d205369676e6564204d6573736167653a0a3332000000006000908152601c829052603c8120610eee81610eb4610100870187612116565b8080601f0160208091040260200160405190810160405280939291908181526020018383808284376000920191909152506114b992505050565b60005473ffffffffffffffffffffffffffffffffffffffff908116911614610f1a5760019150506105cf565b5060009392505050565b50565b8015610f245760405160009033907fffffffffffffffffffffffffffffffffffffffffffffffffffffffffffffffff90849084818181858888f193505050503d8060008114610b4c576040519150601f19603f3d011682016040523d82523d6000602084013e610b4c565b3373ffffffffffffffffffffffffffffffffffffffff7f0000000000000000000000000000000000000000000000000000000000000000161480610fed575060005473ffffffffffffffffffffffffffffffffffffffff1633145b610e71576040517f08c379a000000000000000000000000000000000000000000000000000000000815260206004820181905260248201527f6163636f756e743a206e6f74204f776e6572206f7220456e747279506f696e746044820152606401610805565b6000808473ffffffffffffffffffffffffffffffffffffffff16848460405161107c9190612194565b60006040518083038185875af1925050503d80600081146110b9576040519150601f19603f3d011682016040523d82523d6000602084013e6110be565b606091505b509150915081610b4c57805160208201fd5b6000805473ffffffffffffffffffffffffffffffffffffffff8085167fffffffffffffffffffffffff00000000000000000000000000000000000000009283168117845560028054868416941684179055604051929390927f0000000000000000000000000000000000000000000000000000000000000000909216917f7c910af0d5fd8019f1307793565067cd8c9667c05e01ad7cb1a38abfc4a4c45d9190a45050565b60005473ffffffffffffffffffffffffffffffffffffffff1633148061119a57503330145b610e71576040517f08c379a000000000000000000000000000000000000000000000000000000000815260206004820152600a60248201527f6f6e6c79206f776e6572000000000000000000000000000000000000000000006044820152606401610805565b3073ffffffffffffffffffffffffffffffffffffffff7f00000000000000000000000000000000000000000000000000000000000000001614806112cd57507f000000000000000000000000000000000000000000000000000000000000000073ffffffffffffffffffffffffffffffffffffffff166112b47f360894a13ba1a3210667c828492db98dca3e2076cc3735a920a3ca505d382bbc5473ffffffffffffffffffffffffffffffffffffffff1690565b73ffffffffffffffffffffffffffffffffffffffff1614155b15610e71576040517fe07c8dba00000000000000000000000000000000000000000000000000000000815260040160405180910390fd5b610f24611175565b8173ffffffffffffffffffffffffffffffffffffffff166352d1902d6040518163ffffffff1660e01b8152600401602060405180830381865afa925050508015611391575060408051601f3d9081017fffffffffffffffffffffffffffffffffffffffffffffffffffffffffffffffe016820190925261138e9181019061217b565b60015b6113df576040517f4c9c8ce300000000000000000000000000000000000000000000000000000000815273ffffffffffffffffffffffffffffffffffffffff83166004820152602401610805565b7f360894a13ba1a3210667c828492db98dca3e2076cc3735a920a3ca505d382bbc811461143b576040517faa1d49a400000000000000000000000000000000000000000000000000000000815260048101829052602401610805565b61144583836114e3565b505050565b3073ffffffffffffffffffffffffffffffffffffffff7f00000000000000000000000000000000000000000000000000000000000000001614610e71576040517fe07c8dba00000000000000000000000000000000000000000000000000000000815260040160405180910390fd5b6000806000806114c98686611546565b9250925092506114d98282611593565b5090949350505050565b6114ec82611697565b60405173ffffffffffffffffffffffffffffffffffffffff8316907fbc7cd75a20ee27fd9adebab32041f755214dbc6bffa90cc0225b39da2e5c2d3b90600090a280511561153e576114458282611766565b610c1d6117e9565b600080600083516041036115805760208401516040850151606086015160001a61157288828585611821565b95509550955050505061158c565b50508151600091506002905b9250925092565b60008260038111156115a7576115a76121b0565b036115b0575050565b60018260038111156115c4576115c46121b0565b036115fb576040517ff645eedf00000000000000000000000000000000000000000000000000000000815260040160405180910390fd5b600282600381111561160f5761160f6121b0565b03611649576040517ffce698f700000000000000000000000000000000000000000000000000000000815260048101829052602401610805565b600382600381111561165d5761165d6121b0565b03610c1d576040517fd78bce0c00000000000000000000000000000000000000000000000000000000815260048101829052602401610805565b8073ffffffffffffffffffffffffffffffffffffffff163b600003611700576040517f4c9c8ce300000000000000000000000000000000000000000000000000000000815273ffffffffffffffffffffffffffffffffffffffff82166004820152602401610805565b7f360894a13ba1a3210667c828492db98dca3e2076cc3735a920a3ca505d382bbc80547fffffffffffffffffffffffff00000000000000000000000000000000000000001673ffffffffffffffffffffffffffffffffffffffff92909216919091179055565b60606000808473ffffffffffffffffffffffffffffffffffffffff16846040516117909190612194565b600060405180830381855af49150503d80600081146117cb576040519150601f19603f3d011682016040523d82523d6000602084013e6117d0565b606091505b50915091506117e085838361191b565b95945050505050565b3415610e71576040517fb398979f00000000000000000000000000000000000000000000000000000000815260040160405180910390fd5b600080807f7fffffffffffffffffffffffffffffff5d576e7357a4501ddfe92f46681b20a084111561185c5750600091506003905082611911565b604080516000808252602082018084528a905260ff891692820192909252606081018790526080810186905260019060a0016020604051602081039080840390855afa1580156118b0573d6000803e3d6000fd5b50506040517fffffffffffffffffffffffffffffffffffffffffffffffffffffffffffffffe0015191505073ffffffffffffffffffffffffffffffffffffffff811661190757506000925060019150829050611911565b9250600091508190505b9450945094915050565b6060826119305761192b826119aa565b6105f4565b8151158015611954575073ffffffffffffffffffffffffffffffffffffffff84163b155b156119a3576040517f9996b31500000000000000000000000000000000000000000000000000000000815273ffffffffffffffffffffffffffffffffffffffff85166004820152602401610805565b50806105f4565b8051156119ba5780518082602001fd5b6040517f1425ea4200000000000000000000000000000000000000000000000000000000815260040160405180910390fd5b6000602082840312156119fe57600080fd5b81357fffffffff00000000000000000000000000000000000000000000000000000000811681146105f457600080fd5b73ffffffffffffffffffffffffffffffffffffffff81168114610f2457600080fd5b60008083601f840112611a6257600080fd5b50813567ffffffffffffffff811115611a7a57600080fd5b602083019150836020828501011115611a9257600080fd5b9250929050565b600080600080600060808688031215611ab157600080fd5b8535611abc81611a2e565b94506020860135611acc81611a2e565b935060408601359250606086013567ffffffffffffffff811115611aef57600080fd5b611afb88828901611a50565b969995985093965092949392505050565b600080600060608486031215611b2157600080fd5b833567ffffffffffffffff811115611b3857600080fd5b84016101208187031215611b4b57600080fd5b95602085013595506040909401359392505050565b7f4e487b7100000000000000000000000000000000000000000000000000000000600052604160045260246000fd5b6040516080810167ffffffffffffffff81118282101715611bb257611bb2611b60565b60405290565b600082601f830112611bc957600080fd5b813567ffffffffffffffff80821115611be457611be4611b60565b604051601f83017fffffffffffffffffffffffffffffffffffffffffffffffffffffffffffffffe0908116603f01168101908282118183101715611c2a57611c2a611b60565b81604052838152866020858801011115611c4357600080fd5b836020870160208301376000602085830101528094505050505092915050565b600060208284031215611c7557600080fd5b813567ffffffffffffffff80821115611c8d57600080fd5b9083019060808286031215611ca157600080fd5b611ca9611b8f565b823582811115611cb857600080fd5b611cc487828601611bb8565b825250602083013582811115611cd957600080fd5b611ce587828601611bb8565b602083015250604083013582811115611cfd57600080fd5b611d0987828601611bb8565b604083015250606083013582811115611d2157600080fd5b611d2d87828601611bb8565b60608301525095945050505050565b60008083601f840112611d4e57600080fd5b50813567ffffffffffffffff811115611d6657600080fd5b6020830191508360208260051b8501011115611a9257600080fd5b60008060008060008060608789031215611d9a57600080fd5b863567ffffffffffffffff80821115611db257600080fd5b611dbe8a838b01611d3c565b90985096506020890135915080821115611dd757600080fd5b611de38a838b01611d3c565b90965094506040890135915080821115611dfc57600080fd5b50611e0989828a01611d3c565b979a9699509497509295939492505050565b60008060408385031215611e2e57600080fd5b8235611e3981611a2e565b91506020830135611e4981611a2e565b809150509250929050565b60008060408385031215611e6757600080fd5b8235611e7281611a2e565b946020939093013593505050565b60008060408385031215611e9357600080fd5b8235611e9e81611a2e565b9150602083013567ffffffffffffffff811115611eba57600080fd5b611ec685828601611bb8565b9150509250929050565b60005b83811015611eeb578181015183820152602001611ed3565b50506000910152565b6020815260008251806020840152611f13816040850160208701611ed0565b601f017fffffffffffffffffffffffffffffffffffffffffffffffffffffffffffffffe0169190910160400192915050565b60008060008060608587031215611f5b57600080fd5b8435611f6681611a2e565b935060208501359250604085013567ffffffffffffffff811115611f8957600080fd5b611f9587828801611a50565b95989497509550505050565b60008060008060008060008060a0898b031215611fbd57600080fd5b8835611fc881611a2e565b97506020890135611fd881611a2e565b9650604089013567ffffffffffffffff80821115611ff557600080fd5b6120018c838d01611d3c565b909850965060608b013591508082111561201a57600080fd5b6120268c838d01611d3c565b909650945060808b013591508082111561203f57600080fd5b5061204c8b828c01611a50565b999c989b5096995094979396929594505050565b60008060008060008060a0878903121561207957600080fd5b863561208481611a2e565b9550602087013561209481611a2e565b94506040870135935060608701359250608087013567ffffffffffffffff8111156120be57600080fd5b611e0989828a01611a50565b7f4e487b7100000000000000000000000000000000000000000000000000000000600052603260045260246000fd5b60006020828403121561210b57600080fd5b81356105f481611a2e565b60008083357fffffffffffffffffffffffffffffffffffffffffffffffffffffffffffffffe184360301811261214b57600080fd5b83018035915067ffffffffffffffff82111561216657600080fd5b602001915036819003821315611a9257600080fd5b60006020828403121561218d57600080fd5b5051919050565b600082516121a6818460208701611ed0565b9190910192915050565b7f4e487b7100000000000000000000000000000000000000000000000000000000600052602160045260246000fdfea26469706673582212202f20916e3012c7125f139cb1d10df28ca9a08e6f45a89fdd0f40b73d0ccc8d3064736f6c63430008170033",
  "devdoc": {
    "kind": "dev",
    "methods": {},
    "version": 1
  },
  "userdoc": {
    "kind": "user",
    "methods": {},
    "version": 1
  },
  "storageLayout": {
    "storage": [
      {
        "astId": 7669,
        "contract": "contracts/Anansi/SmartAccountFactory.sol:SmartAccountFactory",
        "label": "ownerOf",
        "offset": 0,
        "slot": "0",
        "type": "t_mapping(t_uint256,t_address)"
      }
    ],
    "types": {
      "t_address": {
        "encoding": "inplace",
        "label": "address",
        "numberOfBytes": "20"
      },
      "t_mapping(t_uint256,t_address)": {
        "encoding": "mapping",
        "key": "t_uint256",
        "label": "mapping(uint256 => address)",
        "numberOfBytes": "32",
        "value": "t_address"
      },
      "t_uint256": {
        "encoding": "inplace",
        "label": "uint256",
        "numberOfBytes": "32"
      }
    }
  }
}